{
  "_format": "hh-sol-artifact-1",
  "contractName": "MyNFT",
  "sourceName": "contracts/MyNFT.sol",
  "abi": [
    {
      "inputs": [],
      "stateMutability": "nonpayable",
      "type": "constructor"
    },
    {
      "anonymous": false,
      "inputs": [
        {
          "indexed": true,
          "internalType": "address",
          "name": "owner",
          "type": "address"
        },
        {
          "indexed": true,
          "internalType": "address",
          "name": "approved",
          "type": "address"
        },
        {
          "indexed": true,
          "internalType": "uint256",
          "name": "tokenId",
          "type": "uint256"
        }
      ],
      "name": "Approval",
      "type": "event"
    },
    {
      "anonymous": false,
      "inputs": [
        {
          "indexed": true,
          "internalType": "address",
          "name": "owner",
          "type": "address"
        },
        {
          "indexed": true,
          "internalType": "address",
          "name": "operator",
          "type": "address"
        },
        {
          "indexed": false,
          "internalType": "bool",
          "name": "approved",
          "type": "bool"
        }
      ],
      "name": "ApprovalForAll",
      "type": "event"
    },
    {
      "anonymous": false,
      "inputs": [
        {
          "indexed": true,
          "internalType": "address",
          "name": "from",
          "type": "address"
        },
        {
          "indexed": true,
          "internalType": "address",
          "name": "to",
          "type": "address"
        },
        {
          "indexed": true,
          "internalType": "uint256",
          "name": "tokenId",
          "type": "uint256"
        }
      ],
      "name": "Transfer",
      "type": "event"
    },
    {
      "inputs": [
        {
          "internalType": "address",
          "name": "to",
          "type": "address"
        },
        {
          "internalType": "uint256",
          "name": "tokenId",
          "type": "uint256"
        }
      ],
      "name": "approve",
      "outputs": [],
      "stateMutability": "nonpayable",
      "type": "function"
    },
    {
      "inputs": [
        {
          "internalType": "address",
          "name": "owner",
          "type": "address"
        }
      ],
      "name": "balanceOf",
      "outputs": [
        {
          "internalType": "uint256",
          "name": "",
          "type": "uint256"
        }
      ],
      "stateMutability": "view",
      "type": "function"
    },
    {
      "inputs": [],
      "name": "baseURI",
      "outputs": [
        {
          "internalType": "string",
          "name": "",
          "type": "string"
        }
      ],
      "stateMutability": "view",
      "type": "function"
    },
    {
      "inputs": [
        {
          "internalType": "uint256",
          "name": "_tokenId",
          "type": "uint256"
        }
      ],
      "name": "buy",
      "outputs": [],
      "stateMutability": "payable",
      "type": "function"
    },
    {
      "inputs": [],
      "name": "creatorPercentage",
      "outputs": [
        {
          "internalType": "uint256",
          "name": "",
          "type": "uint256"
        }
      ],
      "stateMutability": "view",
      "type": "function"
    },
    {
      "inputs": [
        {
          "internalType": "uint256",
          "name": "tokenId",
          "type": "uint256"
        }
      ],
      "name": "getApproved",
      "outputs": [
        {
          "internalType": "address",
          "name": "",
          "type": "address"
        }
      ],
      "stateMutability": "view",
      "type": "function"
    },
    {
      "inputs": [
        {
          "internalType": "address",
          "name": "owner",
          "type": "address"
        },
        {
          "internalType": "address",
          "name": "operator",
          "type": "address"
        }
      ],
      "name": "isApprovedForAll",
      "outputs": [
        {
          "internalType": "bool",
          "name": "",
          "type": "bool"
        }
      ],
      "stateMutability": "view",
      "type": "function"
    },
    {
      "inputs": [],
      "name": "maintainerPercentage",
      "outputs": [
        {
          "internalType": "uint256",
          "name": "",
          "type": "uint256"
        }
      ],
      "stateMutability": "view",
      "type": "function"
    },
    {
      "inputs": [
        {
          "internalType": "string",
          "name": "tokenURI",
          "type": "string"
        },
        {
          "internalType": "uint256",
          "name": "_salePrice",
          "type": "uint256"
        },
        {
          "internalType": "address",
          "name": "tokenCreatorAdd",
          "type": "address"
        }
      ],
      "name": "mintNFT",
      "outputs": [
        {
          "internalType": "uint256",
          "name": "",
          "type": "uint256"
        }
      ],
      "stateMutability": "nonpayable",
      "type": "function"
    },
    {
      "inputs": [],
      "name": "name",
      "outputs": [
        {
          "internalType": "string",
          "name": "",
          "type": "string"
        }
      ],
      "stateMutability": "view",
      "type": "function"
    },
    {
      "inputs": [],
      "name": "owner",
      "outputs": [
        {
          "internalType": "address payable",
          "name": "",
          "type": "address"
        }
      ],
      "stateMutability": "view",
      "type": "function"
    },
    {
      "inputs": [
        {
          "internalType": "uint256",
          "name": "tokenId",
          "type": "uint256"
        }
      ],
      "name": "ownerOf",
      "outputs": [
        {
          "internalType": "address",
          "name": "",
          "type": "address"
        }
      ],
      "stateMutability": "view",
      "type": "function"
    },
    {
      "inputs": [
        {
          "internalType": "address",
          "name": "from",
          "type": "address"
        },
        {
          "internalType": "address",
          "name": "to",
          "type": "address"
        },
        {
          "internalType": "uint256",
          "name": "tokenId",
          "type": "uint256"
        }
      ],
      "name": "safeTransferFrom",
      "outputs": [],
      "stateMutability": "nonpayable",
      "type": "function"
    },
    {
      "inputs": [
        {
          "internalType": "address",
          "name": "from",
          "type": "address"
        },
        {
          "internalType": "address",
          "name": "to",
          "type": "address"
        },
        {
          "internalType": "uint256",
          "name": "tokenId",
          "type": "uint256"
        },
        {
          "internalType": "bytes",
          "name": "_data",
          "type": "bytes"
        }
      ],
      "name": "safeTransferFrom",
      "outputs": [],
      "stateMutability": "nonpayable",
      "type": "function"
    },
    {
      "inputs": [
        {
          "internalType": "address",
          "name": "operator",
          "type": "address"
        },
        {
          "internalType": "bool",
          "name": "approved",
          "type": "bool"
        }
      ],
      "name": "setApprovalForAll",
      "outputs": [],
      "stateMutability": "nonpayable",
      "type": "function"
    },
    {
      "inputs": [
        {
          "internalType": "bytes4",
          "name": "interfaceId",
          "type": "bytes4"
        }
      ],
      "name": "supportsInterface",
      "outputs": [
        {
          "internalType": "bool",
          "name": "",
          "type": "bool"
        }
      ],
      "stateMutability": "view",
      "type": "function"
    },
    {
      "inputs": [],
      "name": "symbol",
      "outputs": [
        {
          "internalType": "string",
          "name": "",
          "type": "string"
        }
      ],
      "stateMutability": "view",
      "type": "function"
    },
    {
      "inputs": [
        {
          "internalType": "uint256",
          "name": "index",
          "type": "uint256"
        }
      ],
      "name": "tokenByIndex",
      "outputs": [
        {
          "internalType": "uint256",
          "name": "",
          "type": "uint256"
        }
      ],
      "stateMutability": "view",
      "type": "function"
    },
    {
      "inputs": [
        {
          "internalType": "address",
          "name": "owner",
          "type": "address"
        },
        {
          "internalType": "uint256",
          "name": "index",
          "type": "uint256"
        }
      ],
      "name": "tokenOfOwnerByIndex",
      "outputs": [
        {
          "internalType": "uint256",
          "name": "",
          "type": "uint256"
        }
      ],
      "stateMutability": "view",
      "type": "function"
    },
    {
      "inputs": [
        {
          "internalType": "uint256",
          "name": "tokenId",
          "type": "uint256"
        }
      ],
      "name": "tokenURI",
      "outputs": [
        {
          "internalType": "string",
          "name": "",
          "type": "string"
        }
      ],
      "stateMutability": "view",
      "type": "function"
    },
    {
      "inputs": [],
      "name": "totalSupply",
      "outputs": [
        {
          "internalType": "uint256",
          "name": "",
          "type": "uint256"
        }
      ],
      "stateMutability": "view",
      "type": "function"
    },
    {
      "inputs": [
        {
          "internalType": "address",
          "name": "from",
          "type": "address"
        },
        {
          "internalType": "address",
          "name": "to",
          "type": "address"
        },
        {
          "internalType": "uint256",
          "name": "tokenId",
          "type": "uint256"
        }
      ],
      "name": "transferFrom",
      "outputs": [],
      "stateMutability": "nonpayable",
      "type": "function"
    }
  ],
  "bytecode": "0x6080604052601e600f5560646010553480156200001b57600080fd5b506040518060400160405280600d81526020017f41452053747564696f204e4654000000000000000000000000000000000000008152506040518060400160405280601981526020017f4d6164652077697468203c332062792041452053747564696f00000000000000815250620000a06301ffc9a760e01b6200012260201b60201c565b8160069080519060200190620000b89291906200022b565b508060079080519060200190620000d19291906200022b565b50620000ea6380ac58cd60e01b6200012260201b60201c565b62000102635b5e139f60e01b6200012260201b60201c565b6200011a63780e9d6360e01b6200012260201b60201c565b5050620002d1565b63ffffffff60e01b817bffffffffffffffffffffffffffffffffffffffffffffffffffffffff19161415620001bf576040517f08c379a000000000000000000000000000000000000000000000000000000000815260040180806020018281038252601c8152602001807f4552433136353a20696e76616c696420696e746572666163652069640000000081525060200191505060405180910390fd5b6001600080837bffffffffffffffffffffffffffffffffffffffffffffffffffffffff19167bffffffffffffffffffffffffffffffffffffffffffffffffffffffff1916815260200190815260200160002060006101000a81548160ff02191690831515021790555050565b828054600181600116156101000203166002900490600052602060002090601f016020900481019282601f106200026e57805160ff19168380011785556200029f565b828001600101855582156200029f579182015b828111156200029e57825182559160200191906001019062000281565b5b509050620002ae9190620002b2565b5090565b5b80821115620002cd576000816000905550600101620002b3565b5090565b61315980620002e16000396000f3fe6080604052600436106101355760003560e01c80636c0360eb116100ab578063b88d4fde1161006f578063b88d4fde14610867578063c87b56dd14610979578063d96a094a14610a2d578063e985e9c514610a5b578063f071bf4f14610ae2578063f2bf6b8c14610b0d57610135565b80636c0360eb1461064457806370a08231146106d45780638da5cb5b1461073957806395d89b411461077a578063a22cb4651461080a57610135565b806323b872dd116100fd57806323b872dd146103255780632f745c59146103a057806342842e0e1461040f5780634f6ccce71461048a5780636352211e146104d957806363bae8c01461053e57610135565b806301ffc9a71461013a57806306fdde03146101aa578063081812fc1461023a578063095ea7b31461029f57806318160ddd146102fa575b600080fd5b34801561014657600080fd5b506101926004803603602081101561015d57600080fd5b8101908080357bffffffffffffffffffffffffffffffffffffffffffffffffffffffff19169060200190929190505050610b38565b60405180821515815260200191505060405180910390f35b3480156101b657600080fd5b506101bf610b9f565b6040518080602001828103825283818151815260200191508051906020019080838360005b838110156101ff5780820151818401526020810190506101e4565b50505050905090810190601f16801561022c5780820380516001836020036101000a031916815260200191505b509250505060405180910390f35b34801561024657600080fd5b506102736004803603602081101561025d57600080fd5b8101908080359060200190929190505050610c41565b604051808273ffffffffffffffffffffffffffffffffffffffff16815260200191505060405180910390f35b3480156102ab57600080fd5b506102f8600480360360408110156102c257600080fd5b81019080803573ffffffffffffffffffffffffffffffffffffffff16906020019092919080359060200190929190505050610cdc565b005b34801561030657600080fd5b5061030f610e20565b6040518082815260200191505060405180910390f35b34801561033157600080fd5b5061039e6004803603606081101561034857600080fd5b81019080803573ffffffffffffffffffffffffffffffffffffffff169060200190929190803573ffffffffffffffffffffffffffffffffffffffff16906020019092919080359060200190929190505050610e31565b005b3480156103ac57600080fd5b506103f9600480360360408110156103c357600080fd5b81019080803573ffffffffffffffffffffffffffffffffffffffff16906020019092919080359060200190929190505050610ea7565b6040518082815260200191505060405180910390f35b34801561041b57600080fd5b506104886004803603606081101561043257600080fd5b81019080803573ffffffffffffffffffffffffffffffffffffffff169060200190929190803573ffffffffffffffffffffffffffffffffffffffff16906020019092919080359060200190929190505050610f02565b005b34801561049657600080fd5b506104c3600480360360208110156104ad57600080fd5b8101908080359060200190929190505050610f22565b6040518082815260200191505060405180910390f35b3480156104e557600080fd5b50610512600480360360208110156104fc57600080fd5b8101908080359060200190929190505050610f45565b604051808273ffffffffffffffffffffffffffffffffffffffff16815260200191505060405180910390f35b34801561054a57600080fd5b5061062e6004803603606081101561056157600080fd5b810190808035906020019064010000000081111561057e57600080fd5b82018360208201111561059057600080fd5b803590602001918460018302840111640100000000831117156105b257600080fd5b91908080601f016020809104026020016040519081016040528093929190818152602001838380828437600081840152601f19601f82011690508083019250505050505050919291929080359060200190929190803573ffffffffffffffffffffffffffffffffffffffff169060200190929190505050610f7c565b6040518082815260200191505060405180910390f35b34801561065057600080fd5b5061065961101b565b6040518080602001828103825283818151815260200191508051906020019080838360005b8381101561069957808201518184015260208101905061067e565b50505050905090810190601f1680156106c65780820380516001836020036101000a031916815260200191505b509250505060405180910390f35b3480156106e057600080fd5b50610723600480360360208110156106f757600080fd5b81019080803573ffffffffffffffffffffffffffffffffffffffff1690602001909291905050506110bd565b6040518082815260200191505060405180910390f35b34801561074557600080fd5b5061074e611192565b604051808273ffffffffffffffffffffffffffffffffffffffff16815260200191505060405180910390f35b34801561078657600080fd5b5061078f6111b8565b6040518080602001828103825283818151815260200191508051906020019080838360005b838110156107cf5780820151818401526020810190506107b4565b50505050905090810190601f1680156107fc5780820380516001836020036101000a031916815260200191505b509250505060405180910390f35b34801561081657600080fd5b506108656004803603604081101561082d57600080fd5b81019080803573ffffffffffffffffffffffffffffffffffffffff16906020019092919080351515906020019092919050505061125a565b005b34801561087357600080fd5b506109776004803603608081101561088a57600080fd5b81019080803573ffffffffffffffffffffffffffffffffffffffff169060200190929190803573ffffffffffffffffffffffffffffffffffffffff16906020019092919080359060200190929190803590602001906401000000008111156108f157600080fd5b82018360208201111561090357600080fd5b8035906020019184600183028401116401000000008311171561092557600080fd5b91908080601f016020809104026020016040519081016040528093929190818152602001838380828437600081840152601f19601f820116905080830192505050505050509192919290505050611410565b005b34801561098557600080fd5b506109b26004803603602081101561099c57600080fd5b8101908080359060200190929190505050611488565b6040518080602001828103825283818151815260200191508051906020019080838360005b838110156109f25780820151818401526020810190506109d7565b50505050905090810190601f168015610a1f5780820380516001836020036101000a031916815260200191505b509250505060405180910390f35b610a5960048036036020811015610a4357600080fd5b8101908080359060200190929190505050611759565b005b348015610a6757600080fd5b50610aca60048036036040811015610a7e57600080fd5b81019080803573ffffffffffffffffffffffffffffffffffffffff169060200190929190803573ffffffffffffffffffffffffffffffffffffffff16906020019092919050505061184e565b60405180821515815260200191505060405180910390f35b348015610aee57600080fd5b50610af76118e2565b6040518082815260200191505060405180910390f35b348015610b1957600080fd5b50610b226118e8565b6040518082815260200191505060405180910390f35b6000806000837bffffffffffffffffffffffffffffffffffffffffffffffffffffffff19167bffffffffffffffffffffffffffffffffffffffffffffffffffffffff1916815260200190815260200160002060009054906101000a900460ff169050919050565b606060068054600181600116156101000203166002900480601f016020809104026020016040519081016040528092919081815260200182805460018160011615610100020316600290048015610c375780601f10610c0c57610100808354040283529160200191610c37565b820191906000526020600020905b815481529060010190602001808311610c1a57829003601f168201915b5050505050905090565b6000610c4c826118ee565b610ca1576040517f08c379a000000000000000000000000000000000000000000000000000000000815260040180806020018281038252602c81526020018061304e602c913960400191505060405180910390fd5b6004600083815260200190815260200160002060009054906101000a900473ffffffffffffffffffffffffffffffffffffffff169050919050565b6000610ce782610f45565b90508073ffffffffffffffffffffffffffffffffffffffff168373ffffffffffffffffffffffffffffffffffffffff161415610d6e576040517f08c379a00000000000000000000000000000000000000000000000000000000081526004018080602001828103825260218152602001806130d26021913960400191505060405180910390fd5b8073ffffffffffffffffffffffffffffffffffffffff16610d8d61190b565b73ffffffffffffffffffffffffffffffffffffffff161480610dbc5750610dbb81610db661190b565b61184e565b5b610e11576040517f08c379a0000000000000000000000000000000000000000000000000000000008152600401808060200182810382526038815260200180612f806038913960400191505060405180910390fd5b610e1b8383611913565b505050565b6000610e2c60026119cc565b905090565b610e42610e3c61190b565b826119e1565b610e97576040517f08c379a00000000000000000000000000000000000000000000000000000000081526004018080602001828103825260318152602001806130f36031913960400191505060405180910390fd5b610ea2838383611ad5565b505050565b6000610efa82600160008673ffffffffffffffffffffffffffffffffffffffff1673ffffffffffffffffffffffffffffffffffffffff168152602001908152602001600020611d1890919063ffffffff16565b905092915050565b610f1d83838360405180602001604052806000815250611410565b505050565b600080610f39836002611d3290919063ffffffff16565b50905080915050919050565b6000610f7582604051806060016040528060298152602001612fe2602991396002611d5e9092919063ffffffff16565b9050919050565b600080339050610f8c600b611d7d565b6000610f98600b611d93565b9050610fa5828288611da1565b84600c60008381526020019081526020016000208190555083600d600083815260200190815260200160002060006101000a81548173ffffffffffffffffffffffffffffffffffffffff021916908373ffffffffffffffffffffffffffffffffffffffff16021790555080925050509392505050565b606060098054600181600116156101000203166002900480601f0160208091040260200160405190810160405280929190818152602001828054600181600116156101000203166002900480156110b35780601f10611088576101008083540402835291602001916110b3565b820191906000526020600020905b81548152906001019060200180831161109657829003601f168201915b5050505050905090565b60008073ffffffffffffffffffffffffffffffffffffffff168273ffffffffffffffffffffffffffffffffffffffff161415611144576040517f08c379a000000000000000000000000000000000000000000000000000000000815260040180806020018281038252602a815260200180612fb8602a913960400191505060405180910390fd5b61118b600160008473ffffffffffffffffffffffffffffffffffffffff1673ffffffffffffffffffffffffffffffffffffffff168152602001908152602001600020611e12565b9050919050565b600a60009054906101000a900473ffffffffffffffffffffffffffffffffffffffff1681565b606060078054600181600116156101000203166002900480601f0160208091040260200160405190810160405280929190818152602001828054600181600116156101000203166002900480156112505780601f1061122557610100808354040283529160200191611250565b820191906000526020600020905b81548152906001019060200180831161123357829003601f168201915b5050505050905090565b61126261190b565b73ffffffffffffffffffffffffffffffffffffffff168273ffffffffffffffffffffffffffffffffffffffff161415611303576040517f08c379a00000000000000000000000000000000000000000000000000000000081526004018080602001828103825260198152602001807f4552433732313a20617070726f766520746f2063616c6c65720000000000000081525060200191505060405180910390fd5b806005600061131061190b565b73ffffffffffffffffffffffffffffffffffffffff1673ffffffffffffffffffffffffffffffffffffffff16815260200190815260200160002060008473ffffffffffffffffffffffffffffffffffffffff1673ffffffffffffffffffffffffffffffffffffffff16815260200190815260200160002060006101000a81548160ff0219169083151502179055508173ffffffffffffffffffffffffffffffffffffffff166113bd61190b565b73ffffffffffffffffffffffffffffffffffffffff167f17307eab39ab6107e8899845ad3d59bd9653f200f220920489ca2b5937696c318360405180821515815260200191505060405180910390a35050565b61142161141b61190b565b836119e1565b611476576040517f08c379a00000000000000000000000000000000000000000000000000000000081526004018080602001828103825260318152602001806130f36031913960400191505060405180910390fd5b61148284848484611e27565b50505050565b6060611493826118ee565b6114e8576040517f08c379a000000000000000000000000000000000000000000000000000000000815260040180806020018281038252602f8152602001806130a3602f913960400191505060405180910390fd5b6060600860008481526020019081526020016000208054600181600116156101000203166002900480601f0160208091040260200160405190810160405280929190818152602001828054600181600116156101000203166002900480156115915780601f1061156657610100808354040283529160200191611591565b820191906000526020600020905b81548152906001019060200180831161157457829003601f168201915b5050505050905060606115a261101b565b90506000815114156115b8578192505050611754565b6000825111156116895780826040516020018083805190602001908083835b602083106115fa57805182526020820191506020810190506020830392506115d7565b6001836020036101000a03801982511681845116808217855250505050505090500182805190602001908083835b6020831061164b5780518252602082019150602081019050602083039250611628565b6001836020036101000a0380198251168184511680821785525050505050509050019250505060405160208183030381529060405292505050611754565b8061169385611e99565b6040516020018083805190602001908083835b602083106116c957805182526020820191506020810190506020830392506116a6565b6001836020036101000a03801982511681845116808217855250505050505090500182805190602001908083835b6020831061171a57805182526020820191506020810190506020830392506116f7565b6001836020036101000a03801982511681845116808217855250505050505090500192505050604051602081830303815290604052925050505b919050565b6000600c600083815260200190815260200160002054905060003490506000600a60009054906101000a900473ffffffffffffffffffffffffffffffffffffffff1690506000600d600086815260200190815260200160002060009054906101000a900473ffffffffffffffffffffffffffffffffffffffff1690506000339050600085116117e757600080fd5b848410156117f457600080fd5b61182284600a60009054906101000a900473ffffffffffffffffffffffffffffffffffffffff168486611fe0565b61182d838288611ad5565b6000600c600088815260200190815260200160002081905550505050505050565b6000600560008473ffffffffffffffffffffffffffffffffffffffff1673ffffffffffffffffffffffffffffffffffffffff16815260200190815260200160002060008373ffffffffffffffffffffffffffffffffffffffff1673ffffffffffffffffffffffffffffffffffffffff16815260200190815260200160002060009054906101000a900460ff16905092915050565b60105481565b600f5481565b600061190482600261214090919063ffffffff16565b9050919050565b600033905090565b816004600083815260200190815260200160002060006101000a81548173ffffffffffffffffffffffffffffffffffffffff021916908373ffffffffffffffffffffffffffffffffffffffff160217905550808273ffffffffffffffffffffffffffffffffffffffff1661198683610f45565b73ffffffffffffffffffffffffffffffffffffffff167f8c5be1e5ebec7d5bd14f71427d1e84f3dd0314c0f7b2291e5b200ac8c7c3b92560405160405180910390a45050565b60006119da8260000161215a565b9050919050565b60006119ec826118ee565b611a41576040517f08c379a000000000000000000000000000000000000000000000000000000000815260040180806020018281038252602c815260200180612f54602c913960400191505060405180910390fd5b6000611a4c83610f45565b90508073ffffffffffffffffffffffffffffffffffffffff168473ffffffffffffffffffffffffffffffffffffffff161480611abb57508373ffffffffffffffffffffffffffffffffffffffff16611aa384610c41565b73ffffffffffffffffffffffffffffffffffffffff16145b80611acc5750611acb818561184e565b5b91505092915050565b8273ffffffffffffffffffffffffffffffffffffffff16611af582610f45565b73ffffffffffffffffffffffffffffffffffffffff1614611b61576040517f08c379a000000000000000000000000000000000000000000000000000000000815260040180806020018281038252602981526020018061307a6029913960400191505060405180910390fd5b600073ffffffffffffffffffffffffffffffffffffffff168273ffffffffffffffffffffffffffffffffffffffff161415611be7576040517f08c379a0000000000000000000000000000000000000000000000000000000008152600401808060200182810382526024815260200180612f0a6024913960400191505060405180910390fd5b611bf283838361216b565b611bfd600082611913565b611c4e81600160008673ffffffffffffffffffffffffffffffffffffffff1673ffffffffffffffffffffffffffffffffffffffff16815260200190815260200160002061217090919063ffffffff16565b50611ca081600160008573ffffffffffffffffffffffffffffffffffffffff1673ffffffffffffffffffffffffffffffffffffffff16815260200190815260200160002061218a90919063ffffffff16565b50611cb7818360026121a49092919063ffffffff16565b50808273ffffffffffffffffffffffffffffffffffffffff168473ffffffffffffffffffffffffffffffffffffffff167fddf252ad1be2c89b69c2b068fc378daa952ba7f163c4a11628f55a4df523b3ef60405160405180910390a4505050565b6000611d2783600001836121d9565b60001c905092915050565b600080600080611d45866000018661225c565b915091508160001c8160001c9350935050509250929050565b6000611d71846000018460001b846122f5565b60001c90509392505050565b6001816000016000828254019250508190555050565b600081600001549050919050565b611dab83836123eb565b611db860008484846125df565b611e0d576040517f08c379a0000000000000000000000000000000000000000000000000000000008152600401808060200182810382526032815260200180612ed86032913960400191505060405180910390fd5b505050565b6000611e20826000016127f8565b9050919050565b611e32848484611ad5565b611e3e848484846125df565b611e93576040517f08c379a0000000000000000000000000000000000000000000000000000000008152600401808060200182810382526032815260200180612ed86032913960400191505060405180910390fd5b50505050565b60606000821415611ee1576040518060400160405280600181526020017f30000000000000000000000000000000000000000000000000000000000000008152509050611fdb565b600082905060005b60008214611f0b578080600101915050600a8281611f0357fe5b049150611ee9565b60608167ffffffffffffffff81118015611f2457600080fd5b506040519080825280601f01601f191660200182016040528015611f575781602001600182028036833780820191505090505b50905060006001830390508593505b60008414611fd357600a8481611f7857fe5b0660300160f81b82828060019003935081518110611f9257fe5b60200101907effffffffffffffffffffffffffffffffffffffffffffffffffffffffffffff1916908160001a905350600a8481611fcb57fe5b049350611f66565b819450505050505b919050565b600080600061200e6103e8612000600f548a61280990919063ffffffff16565b61288f90919063ffffffff16565b92506120396103e861202b6010548a61280990919063ffffffff16565b61288f90919063ffffffff16565b915061206083612052848a61291890919063ffffffff16565b61291890919063ffffffff16565b90508573ffffffffffffffffffffffffffffffffffffffff166108fc849081150290604051600060405180830381858888f193505050501580156120a8573d6000803e3d6000fd5b508473ffffffffffffffffffffffffffffffffffffffff166108fc839081150290604051600060405180830381858888f193505050501580156120ef573d6000803e3d6000fd5b508373ffffffffffffffffffffffffffffffffffffffff166108fc829081150290604051600060405180830381858888f19350505050158015612136573d6000803e3d6000fd5b5050505050505050565b6000612152836000018360001b61299b565b905092915050565b600081600001805490509050919050565b505050565b6000612182836000018360001b6129be565b905092915050565b600061219c836000018360001b612aa6565b905092915050565b60006121d0846000018460001b8473ffffffffffffffffffffffffffffffffffffffff1660001b612b16565b90509392505050565b60008183600001805490501161223a576040517f08c379a0000000000000000000000000000000000000000000000000000000008152600401808060200182810382526022815260200180612eb66022913960400191505060405180910390fd5b82600001828154811061224957fe5b9060005260206000200154905092915050565b600080828460000180549050116122be576040517f08c379a000000000000000000000000000000000000000000000000000000000815260040180806020018281038252602281526020018061300b6022913960400191505060405180910390fd5b60008460000184815481106122cf57fe5b906000526020600020906002020190508060000154816001015492509250509250929050565b600080846001016000858152602001908152602001600020549050600081141583906123bc576040517f08c379a00000000000000000000000000000000000000000000000000000000081526004018080602001828103825283818151815260200191508051906020019080838360005b83811015612381578082015181840152602081019050612366565b50505050905090810190601f1680156123ae5780820380516001836020036101000a031916815260200191505b509250505060405180910390fd5b508460000160018203815481106123cf57fe5b9060005260206000209060020201600101549150509392505050565b600073ffffffffffffffffffffffffffffffffffffffff168273ffffffffffffffffffffffffffffffffffffffff16141561248e576040517f08c379a00000000000000000000000000000000000000000000000000000000081526004018080602001828103825260208152602001807f4552433732313a206d696e7420746f20746865207a65726f206164647265737381525060200191505060405180910390fd5b612497816118ee565b1561250a576040517f08c379a000000000000000000000000000000000000000000000000000000000815260040180806020018281038252601c8152602001807f4552433732313a20746f6b656e20616c7265616479206d696e7465640000000081525060200191505060405180910390fd5b6125166000838361216b565b61256781600160008573ffffffffffffffffffffffffffffffffffffffff1673ffffffffffffffffffffffffffffffffffffffff16815260200190815260200160002061218a90919063ffffffff16565b5061257e818360026121a49092919063ffffffff16565b50808273ffffffffffffffffffffffffffffffffffffffff16600073ffffffffffffffffffffffffffffffffffffffff167fddf252ad1be2c89b69c2b068fc378daa952ba7f163c4a11628f55a4df523b3ef60405160405180910390a45050565b60006126008473ffffffffffffffffffffffffffffffffffffffff16612bf2565b61260d57600190506127f0565b606061277763150b7a0260e01b61262261190b565b888787604051602401808573ffffffffffffffffffffffffffffffffffffffff1681526020018473ffffffffffffffffffffffffffffffffffffffff16815260200183815260200180602001828103825283818151815260200191508051906020019080838360005b838110156126a657808201518184015260208101905061268b565b50505050905090810190601f1680156126d35780820380516001836020036101000a031916815260200191505b5095505050505050604051602081830303815290604052907bffffffffffffffffffffffffffffffffffffffffffffffffffffffff19166020820180517bffffffffffffffffffffffffffffffffffffffffffffffffffffffff8381831617835250505050604051806060016040528060328152602001612ed8603291398773ffffffffffffffffffffffffffffffffffffffff16612c059092919063ffffffff16565b9050600081806020019051602081101561279057600080fd5b8101908080519060200190929190505050905063150b7a0260e01b7bffffffffffffffffffffffffffffffffffffffffffffffffffffffff1916817bffffffffffffffffffffffffffffffffffffffffffffffffffffffff191614925050505b949350505050565b600081600001805490509050919050565b60008083141561281c5760009050612889565b600082840290508284828161282d57fe5b0414612884576040517f08c379a000000000000000000000000000000000000000000000000000000000815260040180806020018281038252602181526020018061302d6021913960400191505060405180910390fd5b809150505b92915050565b6000808211612906576040517f08c379a000000000000000000000000000000000000000000000000000000000815260040180806020018281038252601a8152602001807f536166654d6174683a206469766973696f6e206279207a65726f00000000000081525060200191505060405180910390fd5b81838161290f57fe5b04905092915050565b600082821115612990576040517f08c379a000000000000000000000000000000000000000000000000000000000815260040180806020018281038252601e8152602001807f536166654d6174683a207375627472616374696f6e206f766572666c6f77000081525060200191505060405180910390fd5b818303905092915050565b600080836001016000848152602001908152602001600020541415905092915050565b60008083600101600084815260200190815260200160002054905060008114612a9a5760006001820390506000600186600001805490500390506000866000018281548110612a0957fe5b9060005260206000200154905080876000018481548110612a2657fe5b9060005260206000200181905550600183018760010160008381526020019081526020016000208190555086600001805480612a5e57fe5b60019003818190600052602060002001600090559055866001016000878152602001908152602001600020600090556001945050505050612aa0565b60009150505b92915050565b6000612ab28383612c1d565b612b0b578260000182908060018154018082558091505060019003906000526020600020016000909190919091505582600001805490508360010160008481526020019081526020016000208190555060019050612b10565b600090505b92915050565b6000808460010160008581526020019081526020016000205490506000811415612bbd57846000016040518060400160405280868152602001858152509080600181540180825580915050600190039060005260206000209060020201600090919091909150600082015181600001556020820151816001015550508460000180549050856001016000868152602001908152602001600020819055506001915050612beb565b82856000016001830381548110612bd057fe5b90600052602060002090600202016001018190555060009150505b9392505050565b600080823b905060008111915050919050565b6060612c148484600085612c40565b90509392505050565b600080836001016000848152602001908152602001600020541415905092915050565b606082471015612c9b576040517f08c379a0000000000000000000000000000000000000000000000000000000008152600401808060200182810382526026815260200180612f2e6026913960400191505060405180910390fd5b612ca485612bf2565b612d16576040517f08c379a000000000000000000000000000000000000000000000000000000000815260040180806020018281038252601d8152602001807f416464726573733a2063616c6c20746f206e6f6e2d636f6e747261637400000081525060200191505060405180910390fd5b600060608673ffffffffffffffffffffffffffffffffffffffff1685876040518082805190602001908083835b60208310612d665780518252602082019150602081019050602083039250612d43565b6001836020036101000a03801982511681845116808217855250505050505090500191505060006040518083038185875af1925050503d8060008114612dc8576040519150601f19603f3d011682016040523d82523d6000602084013e612dcd565b606091505b5091509150612ddd828286612de9565b92505050949350505050565b60608315612df957829050612eae565b600083511115612e0c5782518084602001fd5b816040517f08c379a00000000000000000000000000000000000000000000000000000000081526004018080602001828103825283818151815260200191508051906020019080838360005b83811015612e73578082015181840152602081019050612e58565b50505050905090810190601f168015612ea05780820380516001836020036101000a031916815260200191505b509250505060405180910390fd5b939250505056fe456e756d657261626c655365743a20696e646578206f7574206f6620626f756e64734552433732313a207472616e7366657220746f206e6f6e20455243373231526563656976657220696d706c656d656e7465724552433732313a207472616e7366657220746f20746865207a65726f2061646472657373416464726573733a20696e73756666696369656e742062616c616e636520666f722063616c6c4552433732313a206f70657261746f7220717565727920666f72206e6f6e6578697374656e7420746f6b656e4552433732313a20617070726f76652063616c6c6572206973206e6f74206f776e6572206e6f7220617070726f76656420666f7220616c6c4552433732313a2062616c616e636520717565727920666f7220746865207a65726f20616464726573734552433732313a206f776e657220717565727920666f72206e6f6e6578697374656e7420746f6b656e456e756d657261626c654d61703a20696e646578206f7574206f6620626f756e6473536166654d6174683a206d756c7469706c69636174696f6e206f766572666c6f774552433732313a20617070726f76656420717565727920666f72206e6f6e6578697374656e7420746f6b656e4552433732313a207472616e73666572206f6620746f6b656e2074686174206973206e6f74206f776e4552433732314d657461646174613a2055524920717565727920666f72206e6f6e6578697374656e7420746f6b656e4552433732313a20617070726f76616c20746f2063757272656e74206f776e65724552433732313a207472616e736665722063616c6c6572206973206e6f74206f776e6572206e6f7220617070726f766564a26469706673582212205765a0b41c31e01d009ef31846d7ba281351028041550cfba2b4bdacf7df931164736f6c63430007030033",
  "linkReferences": {},
  "deployedLinkReferences": {}
}